{
  "contractName": "Election",
  "abi": [
    {
      "constant": true,
      "inputs": [],
      "name": "name",
      "outputs": [
        {
          "name": "",
          "type": "string"
        }
      ],
      "payable": false,
      "stateMutability": "view",
      "type": "function",
      "signature": "0x06fdde03"
    },
    {
      "constant": true,
      "inputs": [],
      "name": "tokensForSale",
      "outputs": [
        {
          "name": "",
          "type": "uint256"
        }
      ],
      "payable": false,
      "stateMutability": "view",
      "type": "function",
      "signature": "0x12aef8c3"
    },
    {
      "constant": true,
      "inputs": [],
      "name": "totalSupply",
      "outputs": [
        {
          "name": "",
          "type": "uint256"
        }
      ],
      "payable": false,
      "stateMutability": "view",
      "type": "function",
      "signature": "0x18160ddd"
    },
    {
      "constant": true,
      "inputs": [],
      "name": "minForPassive",
      "outputs": [
        {
          "name": "",
          "type": "uint256"
        }
      ],
      "payable": false,
      "stateMutability": "view",
      "type": "function",
      "signature": "0x1f005e8c"
    },
    {
      "constant": true,
      "inputs": [],
      "name": "multiplicationForMidTerm",
      "outputs": [
        {
          "name": "",
          "type": "uint256"
        }
      ],
      "payable": false,
      "stateMutability": "view",
      "type": "function",
      "signature": "0x230f3833"
    },
    {
      "constant": true,
      "inputs": [],
      "name": "totalinvestmentafterinterest",
      "outputs": [
        {
          "name": "",
          "type": "uint256"
        }
      ],
      "payable": false,
      "stateMutability": "view",
      "type": "function",
      "signature": "0x45261ee6"
    },
    {
      "constant": true,
      "inputs": [],
      "name": "tokensSold",
      "outputs": [
        {
          "name": "",
          "type": "uint256"
        }
      ],
      "payable": false,
      "stateMutability": "view",
      "type": "function",
      "signature": "0x518ab2a8"
    },
    {
      "constant": true,
      "inputs": [],
      "name": "standard",
      "outputs": [
        {
          "name": "",
          "type": "string"
        }
      ],
      "payable": false,
      "stateMutability": "view",
      "type": "function",
      "signature": "0x5a3b7e42"
    },
    {
      "constant": true,
      "inputs": [
        {
          "name": "",
          "type": "address"
        }
      ],
      "name": "balanceOf",
      "outputs": [
        {
          "name": "",
          "type": "uint256"
        }
      ],
      "payable": false,
      "stateMutability": "view",
      "type": "function",
      "signature": "0x70a08231"
    },
    {
      "constant": true,
      "inputs": [],
      "name": "interestRate",
      "outputs": [
        {
          "name": "",
          "type": "uint256"
        }
      ],
      "payable": false,
      "stateMutability": "view",
      "type": "function",
      "signature": "0x7c3a00fd"
    },
    {
      "constant": true,
      "inputs": [],
      "name": "tokenPrice",
      "outputs": [
        {
          "name": "",
          "type": "uint256"
        }
      ],
      "payable": false,
      "stateMutability": "view",
      "type": "function",
      "signature": "0x7ff9b596"
    },
    {
      "constant": true,
      "inputs": [],
      "name": "investor2Index",
      "outputs": [
        {
          "name": "",
          "type": "uint256"
        }
      ],
      "payable": false,
      "stateMutability": "view",
      "type": "function",
      "signature": "0x892ce214"
    },
    {
      "constant": true,
      "inputs": [],
      "name": "symbol",
      "outputs": [
        {
          "name": "",
          "type": "string"
        }
      ],
      "payable": false,
      "stateMutability": "view",
      "type": "function",
      "signature": "0x95d89b41"
    },
    {
      "constant": true,
      "inputs": [],
      "name": "multiplicationForLongTerm",
      "outputs": [
        {
          "name": "",
          "type": "uint256"
        }
      ],
      "payable": false,
      "stateMutability": "view",
      "type": "function",
      "signature": "0x9e08107d"
    },
    {
      "constant": true,
      "inputs": [],
      "name": "investmentTerm",
      "outputs": [
        {
          "name": "",
          "type": "string"
        }
      ],
      "payable": false,
      "stateMutability": "view",
      "type": "function",
      "signature": "0xa0ae9067"
    },
    {
      "constant": true,
      "inputs": [
        {
          "name": "",
          "type": "address"
        },
        {
          "name": "",
          "type": "address"
        }
      ],
      "name": "allowance",
      "outputs": [
        {
          "name": "",
          "type": "uint256"
        }
      ],
      "payable": false,
      "stateMutability": "view",
      "type": "function",
      "signature": "0xdd62ed3e"
    },
    {
      "constant": true,
      "inputs": [],
      "name": "investorIndex",
      "outputs": [
        {
          "name": "",
          "type": "uint256"
        }
      ],
      "payable": false,
      "stateMutability": "view",
      "type": "function",
      "signature": "0xe23e3229"
    },
    {
      "inputs": [],
      "payable": false,
      "stateMutability": "nonpayable",
      "type": "constructor",
      "signature": "constructor"
    },
    {
      "payable": true,
      "stateMutability": "payable",
      "type": "fallback"
    },
    {
      "anonymous": false,
      "inputs": [
        {
          "indexed": true,
          "name": "_investor",
          "type": "address"
        },
        {
          "indexed": false,
          "name": "_investmentValue",
          "type": "uint256"
        }
      ],
      "name": "Deposit",
      "type": "event",
      "signature": "0xe1fffcc4923d04b559f4d29a8bfc6cda04eb5b0d3c460751c2402c5c5cc9109c"
    },
    {
      "anonymous": false,
      "inputs": [
        {
          "indexed": true,
          "name": "_investor2",
          "type": "address"
        },
        {
          "indexed": false,
          "name": "_investmentValue2",
          "type": "uint256"
        }
      ],
      "name": "Deposit2",
      "type": "event",
      "signature": "0x1cd8e6d0fa374813e8a50911b818220fbdbbbc5a2b5d4e3219c4cdbd73ef2e8b"
    },
    {
      "anonymous": false,
      "inputs": [
        {
          "indexed": true,
          "name": "_acclaimer",
          "type": "address"
        },
        {
          "indexed": true,
          "name": "_amout",
          "type": "uint256"
        }
      ],
      "name": "Spent",
      "type": "event",
      "signature": "0xd3eec71143c45f28685b24760ea218d476917aa0ac0392a55e5304cef40bd2b6"
    },
    {
      "anonymous": false,
      "inputs": [
        {
          "indexed": true,
          "name": "_acclaimer2",
          "type": "address"
        },
        {
          "indexed": true,
          "name": "_amout2",
          "type": "uint256"
        }
      ],
      "name": "Spent2",
      "type": "event",
      "signature": "0xd7d6b9f2e36cfe55a73b0f1cacd4aaae3ebddb419423f398effddfa18aee1b1d"
    },
    {
      "anonymous": false,
      "inputs": [
        {
          "indexed": true,
          "name": "_from",
          "type": "address"
        },
        {
          "indexed": true,
          "name": "_to",
          "type": "address"
        },
        {
          "indexed": false,
          "name": "_value",
          "type": "uint256"
        }
      ],
      "name": "Transfer",
      "type": "event",
      "signature": "0xddf252ad1be2c89b69c2b068fc378daa952ba7f163c4a11628f55a4df523b3ef"
    },
    {
      "anonymous": false,
      "inputs": [
        {
          "indexed": true,
          "name": "_owner",
          "type": "address"
        },
        {
          "indexed": true,
          "name": "_spender",
          "type": "address"
        },
        {
          "indexed": false,
          "name": "_value",
          "type": "uint256"
        }
      ],
      "name": "Approval",
      "type": "event",
      "signature": "0x8c5be1e5ebec7d5bd14f71427d1e84f3dd0314c0f7b2291e5b200ac8c7c3b925"
    },
    {
      "constant": false,
      "inputs": [
        {
          "name": "_investment",
          "type": "uint256"
        }
      ],
      "name": "getInterestrate",
      "outputs": [
        {
          "name": "rate",
          "type": "uint256"
        }
      ],
      "payable": false,
      "stateMutability": "nonpayable",
      "type": "function",
      "signature": "0x852e84e3"
    },
    {
      "constant": false,
      "inputs": [
        {
          "name": "_to",
          "type": "address"
        },
        {
          "name": "_value",
          "type": "uint256"
        }
      ],
      "name": "transfer",
      "outputs": [
        {
          "name": "success",
          "type": "bool"
        }
      ],
      "payable": false,
      "stateMutability": "nonpayable",
      "type": "function",
      "signature": "0xa9059cbb"
    },
    {
      "constant": false,
      "inputs": [
        {
          "name": "_spender",
          "type": "address"
        },
        {
          "name": "_value",
          "type": "uint256"
        }
      ],
      "name": "approve",
      "outputs": [
        {
          "name": "success",
          "type": "bool"
        }
      ],
      "payable": false,
      "stateMutability": "nonpayable",
      "type": "function",
      "signature": "0x095ea7b3"
    },
    {
      "constant": false,
      "inputs": [
        {
          "name": "_from",
          "type": "address"
        },
        {
          "name": "_to",
          "type": "address"
        },
        {
          "name": "_value",
          "type": "uint256"
        }
      ],
      "name": "transferFrom",
      "outputs": [
        {
          "name": "success",
          "type": "bool"
        }
      ],
      "payable": false,
      "stateMutability": "nonpayable",
      "type": "function",
      "signature": "0x23b872dd"
    },
    {
      "constant": false,
      "inputs": [
        {
          "name": "_unlockTime",
          "type": "uint256"
        },
        {
          "name": "_amount",
          "type": "uint256"
        },
        {
          "name": "term123",
          "type": "uint256"
        }
      ],
      "name": "investment",
      "outputs": [
        {
          "name": "ID",
          "type": "uint256"
        }
      ],
      "payable": false,
      "stateMutability": "nonpayable",
      "type": "function",
      "signature": "0xdd9ec215"
    },
    {
      "constant": false,
      "inputs": [
        {
          "name": "investmentId",
          "type": "uint256"
        }
      ],
      "name": "releaseInvestment",
      "outputs": [
        {
          "name": "success",
          "type": "bool"
        }
      ],
      "payable": false,
      "stateMutability": "nonpayable",
      "type": "function",
      "signature": "0x886a53ab"
    },
    {
      "constant": false,
      "inputs": [
        {
          "name": "_amount",
          "type": "uint256"
        }
      ],
      "name": "passiveIncomeInvestment",
      "outputs": [
        {
          "name": "ID2",
          "type": "uint256"
        }
      ],
      "payable": false,
      "stateMutability": "nonpayable",
      "type": "function",
      "signature": "0x9d1a72a8"
    },
    {
      "constant": false,
      "inputs": [
        {
          "name": "pasiveincomeID",
          "type": "uint256"
        }
      ],
      "name": "getPasiveIncomeDay",
      "outputs": [
        {
          "name": "ID2",
          "type": "uint256"
        }
      ],
      "payable": false,
      "stateMutability": "nonpayable",
      "type": "function",
      "signature": "0x9efe0a19"
    },
    {
      "constant": false,
      "inputs": [
        {
          "name": "pasiveincomeID",
          "type": "uint256"
        }
      ],
      "name": "getPasiveIncomeAmount",
      "outputs": [
        {
          "name": "ID2",
          "type": "uint256"
        }
      ],
      "payable": false,
      "stateMutability": "nonpayable",
      "type": "function",
      "signature": "0xc70568de"
    },
    {
      "constant": false,
      "inputs": [
        {
          "name": "investmentId2",
          "type": "uint256"
        }
      ],
      "name": "releasePasiveIncome",
      "outputs": [
        {
          "name": "success",
          "type": "bool"
        }
      ],
      "payable": false,
      "stateMutability": "nonpayable",
      "type": "function",
      "signature": "0x8856f966"
    },
    {
      "constant": false,
      "inputs": [
        {
          "name": "tokensAmount",
          "type": "uint256"
        }
      ],
      "name": "getDiscountOnBuy",
      "outputs": [
        {
          "name": "discount",
          "type": "uint256"
        }
      ],
      "payable": false,
      "stateMutability": "nonpayable",
      "type": "function",
      "signature": "0xc7c3c871"
    }
  ],
  "bytecode": "0x60806040526040805190810160405280600a81526020017f4441707020546f6b656e000000000000000000000000000000000000000000008152506000908051906020019062000051929190620001d0565b506040805190810160405280600481526020017f4441505000000000000000000000000000000000000000000000000000000000815250600190805190602001906200009f929190620001d0565b506040805190810160405280600f81526020017f4441707020546f6b656e2076312e30000000000000000000000000000000000081525060029080519060200190620000ed929190620001d0565b506001600655600160075560116008556005600955601e600a556207a120600b55630bebc200600c556001600d5562989680600e553480156200012f57600080fd5b50633b9aca00600481905550632fad8160601160003373ffffffffffffffffffffffffffffffffffffffff1673ffffffffffffffffffffffffffffffffffffffff16815260200190815260200160002081905550620186a0601160008073ffffffffffffffffffffffffffffffffffffffff1673ffffffffffffffffffffffffffffffffffffffff168152602001908152602001600020819055506200027f565b828054600181600116156101000203166002900490600052602060002090601f016020900481019282601f106200021357805160ff191683800117855562000244565b8280016001018555821562000244579182015b828111156200024357825182559160200191906001019062000226565b5b50905062000253919062000257565b5090565b6200027c91905b80821115620002785760008160009055506001016200025e565b5090565b90565b6132b1806200028f6000396000f3fe60806040526004361061016a576000357c0100000000000000000000000000000000000000000000000000000000900463ffffffff16806306fdde0314610314578063095ea7b3146103a457806312aef8c31461041757806318160ddd146104425780631f005e8c1461046d578063230f38331461049857806323b872dd146104c357806345261ee614610556578063518ab2a8146105815780635a3b7e42146105ac57806370a082311461063c5780637c3a00fd146106a15780637ff9b596146106cc578063852e84e3146106f75780638856f96614610746578063886a53ab14610799578063892ce214146107ec57806395d89b41146108175780639d1a72a8146108a75780639e08107d146108f65780639efe0a1914610921578063a0ae906714610970578063a9059cbb14610a00578063c70568de14610a73578063c7c3c87114610ac2578063dd62ed3e14610b11578063dd9ec21514610b96578063e23e322914610bf9575b630bebc200600d541015156101e7576040517f08c379a00000000000000000000000000000000000000000000000000000000081526004018080602001828103825260138152602001807f416c6c20746f6b656e732061726520736f6c640000000000000000000000000081525060200191505060405180910390fd5b6702c68af0bb14000034111515156101fe57600080fd5b600067016345785d8a00003481151561021357fe5b0490506000600e5482029050600061022a82610c24565b9050600d54630bebc20003828201111515156102ae576040517f08c379a00000000000000000000000000000000000000000000000000000000081526004018080602001828103825260138152602001807f416c6c20746f6b656e732061726520736f6c640000000000000000000000000081525060200191505060405180910390fd5b808201600d60008282540192505081905550808201601160003373ffffffffffffffffffffffffffffffffffffffff1673ffffffffffffffffffffffffffffffffffffffff16815260200190815260200160002060008282540192505081905550505050005b34801561032057600080fd5b50610329610c77565b6040518080602001828103825283818151815260200191508051906020019080838360005b8381101561036957808201518184015260208101905061034e565b50505050905090810190601f1680156103965780820380516001836020036101000a031916815260200191505b509250505060405180910390f35b3480156103b057600080fd5b506103fd600480360360408110156103c757600080fd5b81019080803573ffffffffffffffffffffffffffffffffffffffff16906020019092919080359060200190929190505050610d15565b604051808215151515815260200191505060405180910390f35b34801561042357600080fd5b5061042c610e07565b6040518082815260200191505060405180910390f35b34801561044e57600080fd5b50610457610e0d565b6040518082815260200191505060405180910390f35b34801561047957600080fd5b50610482610e13565b6040518082815260200191505060405180910390f35b3480156104a457600080fd5b506104ad610e19565b6040518082815260200191505060405180910390f35b3480156104cf57600080fd5b5061053c600480360360608110156104e657600080fd5b81019080803573ffffffffffffffffffffffffffffffffffffffff169060200190929190803573ffffffffffffffffffffffffffffffffffffffff16906020019092919080359060200190929190505050610e1f565b604051808215151515815260200191505060405180910390f35b34801561056257600080fd5b5061056b611116565b6040518082815260200191505060405180910390f35b34801561058d57600080fd5b5061059661111c565b6040518082815260200191505060405180910390f35b3480156105b857600080fd5b506105c1611122565b6040518080602001828103825283818151815260200191508051906020019080838360005b838110156106015780820151818401526020810190506105e6565b50505050905090810190601f16801561062e5780820380516001836020036101000a031916815260200191505b509250505060405180910390f35b34801561064857600080fd5b5061068b6004803603602081101561065f57600080fd5b81019080803573ffffffffffffffffffffffffffffffffffffffff1690602001909291905050506111c0565b6040518082815260200191505060405180910390f35b3480156106ad57600080fd5b506106b66111d8565b6040518082815260200191505060405180910390f35b3480156106d857600080fd5b506106e16111de565b6040518082815260200191505060405180910390f35b34801561070357600080fd5b506107306004803603602081101561071a57600080fd5b81019080803590602001909291905050506111e4565b6040518082815260200191505060405180910390f35b34801561075257600080fd5b5061077f6004803603602081101561076957600080fd5b81019080803590602001909291905050506112ea565b604051808215151515815260200191505060405180910390f35b3480156107a557600080fd5b506107d2600480360360208110156107bc57600080fd5b8101908080359060200190929190505050611965565b604051808215151515815260200191505060405180910390f35b3480156107f857600080fd5b50610801611d37565b6040518082815260200191505060405180910390f35b34801561082357600080fd5b5061082c611d3d565b6040518080602001828103825283818151815260200191508051906020019080838360005b8381101561086c578082015181840152602081019050610851565b50505050905090810190601f1680156108995780820380516001836020036101000a031916815260200191505b509250505060405180910390f35b3480156108b357600080fd5b506108e0600480360360208110156108ca57600080fd5b8101908080359060200190929190505050611ddb565b6040518082815260200191505060405180910390f35b34801561090257600080fd5b5061090b61226f565b6040518082815260200191505060405180910390f35b34801561092d57600080fd5b5061095a6004803603602081101561094457600080fd5b8101908080359060200190929190505050612275565b6040518082815260200191505060405180910390f35b34801561097c57600080fd5b50610985612295565b6040518080602001828103825283818151815260200191508051906020019080838360005b838110156109c55780820151818401526020810190506109aa565b50505050905090810190601f1680156109f25780820380516001836020036101000a031916815260200191505b509250505060405180910390f35b348015610a0c57600080fd5b50610a5960048036036040811015610a2357600080fd5b81019080803573ffffffffffffffffffffffffffffffffffffffff16906020019092919080359060200190929190505050612333565b604051808215151515815260200191505060405180910390f35b348015610a7f57600080fd5b50610aac60048036036020811015610a9657600080fd5b810190808035906020019092919050505061251b565b6040518082815260200191505060405180910390f35b348015610ace57600080fd5b50610afb60048036036020811015610ae557600080fd5b8101908080359060200190929190505050610c24565b6040518082815260200191505060405180910390f35b348015610b1d57600080fd5b50610b8060048036036040811015610b3457600080fd5b81019080803573ffffffffffffffffffffffffffffffffffffffff169060200190929190803573ffffffffffffffffffffffffffffffffffffffff16906020019092919050505061253b565b6040518082815260200191505060405180910390f35b348015610ba257600080fd5b50610be360048036036060811015610bb957600080fd5b81019080803590602001909291908035906020019092919080359060200190929190505050612560565b6040518082815260200191505060405180910390f35b348015610c0557600080fd5b50610c0e61315a565b6040518082815260200191505060405180910390f35b600080633b9aca00600d540290506000600c5482811515610c4157fe5b04905060006109c482633b9aca000302905060006509184e72a000868302811515610c6857fe5b04905080945050505050919050565b60008054600181600116156101000203166002900480601f016020809104026020016040519081016040528092919081815260200182805460018160011615610100020316600290048015610d0d5780601f10610ce257610100808354040283529160200191610d0d565b820191906000526020600020905b815481529060010190602001808311610cf057829003601f168201915b505050505081565b600081601260003373ffffffffffffffffffffffffffffffffffffffff1673ffffffffffffffffffffffffffffffffffffffff16815260200190815260200160002060008573ffffffffffffffffffffffffffffffffffffffff1673ffffffffffffffffffffffffffffffffffffffff168152602001908152602001600020819055508273ffffffffffffffffffffffffffffffffffffffff163373ffffffffffffffffffffffffffffffffffffffff167f8c5be1e5ebec7d5bd14f71427d1e84f3dd0314c0f7b2291e5b200ac8c7c3b925846040518082815260200191505060405180910390a36001905092915050565b600c5481565b60045481565b600b5481565b60095481565b6000601160008573ffffffffffffffffffffffffffffffffffffffff1673ffffffffffffffffffffffffffffffffffffffff168152602001908152602001600020548211151515610eb3576040517f08c379a0000000000000000000000000000000000000000000000000000000008152600401808060200182810382526000815260200160200191505060405180910390fd5b601260008573ffffffffffffffffffffffffffffffffffffffff1673ffffffffffffffffffffffffffffffffffffffff16815260200190815260200160002060003373ffffffffffffffffffffffffffffffffffffffff1673ffffffffffffffffffffffffffffffffffffffff168152602001908152602001600020548211151515610f82576040517f08c379a0000000000000000000000000000000000000000000000000000000008152600401808060200182810382526000815260200160200191505060405180910390fd5b81601160008673ffffffffffffffffffffffffffffffffffffffff1673ffffffffffffffffffffffffffffffffffffffff1681526020019081526020016000206000828254039250508190555081601160008573ffffffffffffffffffffffffffffffffffffffff1673ffffffffffffffffffffffffffffffffffffffff1681526020019081526020016000206000828254019250508190555081601260008673ffffffffffffffffffffffffffffffffffffffff1673ffffffffffffffffffffffffffffffffffffffff16815260200190815260200160002060003373ffffffffffffffffffffffffffffffffffffffff1673ffffffffffffffffffffffffffffffffffffffff168152602001908152602001600020600082825403925050819055508273ffffffffffffffffffffffffffffffffffffffff168473ffffffffffffffffffffffffffffffffffffffff167fddf252ad1be2c89b69c2b068fc378daa952ba7f163c4a11628f55a4df523b3ef846040518082815260200191505060405180910390a3600190509392505050565b60055481565b600d5481565b60028054600181600116156101000203166002900480601f0160208091040260200160405190810160405280929190818152602001828054600181600116156101000203166002900480156111b85780601f1061118d576101008083540402835291602001916111b8565b820191906000526020600020905b81548152906001019060200180831161119b57829003601f168201915b505050505081565b60116020528060005260406000206000915090505481565b60085481565b600e5481565b60006004548210151561125f576040517f08c379a00000000000000000000000000000000000000000000000000000000081526004018080602001828103825260058152602001807f77726f6e6700000000000000000000000000000000000000000000000000000081525060200191505060405180910390fd5b6000620186a0601160008073ffffffffffffffffffffffffffffffffffffffff1673ffffffffffffffffffffffffffffffffffffffff168152602001908152602001600020540290506000600454828115156112b757fe5b049050600060085482620186a0030290506000633b9aca008683028115156112db57fe5b04905080945050505050919050565b60003373ffffffffffffffffffffffffffffffffffffffff166010600084815260200190815260200160002060000160009054906101000a900473ffffffffffffffffffffffffffffffffffffffff1673ffffffffffffffffffffffffffffffffffffffff161415156113eb576040517f08c379a000000000000000000000000000000000000000000000000000000000815260040180806020018281038252602a8152602001807f4f6e6c792074686520696e766573746f722063616e20636c61696d207468652081526020017f696e766573746d656e740000000000000000000000000000000000000000000081525060400191505060405180910390fd5b600015156010600084815260200190815260200160002060060160009054906101000a900460ff16151514151561148a576040517f08c379a000000000000000000000000000000000000000000000000000000000815260040180806020018281038252601f8152602001807f54686520696e766573746d656e7420697320616c7265616479207370656e740081525060200191505060405180910390fd5b6010600083815260200190815260200160002060050154600f026010600084815260200190815260200160002060030154014210151515611559576040517f08c379a000000000000000000000000000000000000000000000000000000000815260040180806020018281038252602b8152602001807f556e6c6f636b2074696d6520666f722074686520696e766573746d656e74206481526020017f6964206e6f74207061737300000000000000000000000000000000000000000081525060400191505060405180910390fd5b600b60106000848152602001908152602001600020600501541015156115e7576040517f08c379a000000000000000000000000000000000000000000000000000000000815260040180806020018281038252601f8152602001807f54686520696e766573746d656e7420697320616c7265616479207370656e740081525060200191505060405180910390fd5b60106000838152602001908152602001600020600201546004600082825401925050819055506010600083815260200190815260200160002060020154601160008073ffffffffffffffffffffffffffffffffffffffff1673ffffffffffffffffffffffffffffffffffffffff168152602001908152602001600020600082825403925050819055506010600083815260200190815260200160002060020154601160003373ffffffffffffffffffffffffffffffffffffffff1673ffffffffffffffffffffffffffffffffffffffff16815260200190815260200160002060008282540192505081905550600a601060008481526020019081526020016000206005015414156118965760106000838152602001908152602001600020600101546004600082825401925050819055506010600083815260200190815260200160002060010154601160008073ffffffffffffffffffffffffffffffffffffffff1673ffffffffffffffffffffffffffffffffffffffff168152602001908152602001600020600082825403925050819055506010600083815260200190815260200160002060010154601160003373ffffffffffffffffffffffffffffffffffffffff1673ffffffffffffffffffffffffffffffffffffffff1681526020019081526020016000206000828254019250508190555060016010600084815260200190815260200160002060060160006101000a81548160ff021916908315150217905550601060008381526020019081526020016000206005016000815480929190600101919050555060106000838152602001908152602001600020600101543373ffffffffffffffffffffffffffffffffffffffff167fd3eec71143c45f28685b24760ea218d476917aa0ac0392a55e5304cef40bd2b660405160405180910390a360019050611960565b601060008381526020019081526020016000206005016000815480929190600101919050555060106000838152602001908152602001600020600201543373ffffffffffffffffffffffffffffffffffffffff167fd3eec71143c45f28685b24760ea218d476917aa0ac0392a55e5304cef40bd2b660405160405180910390a36010600083815260200190815260200160002060050154600f026010600084815260200190815260200160002060030154014210151561195b57611959826112ea565b505b600190505b919050565b60003373ffffffffffffffffffffffffffffffffffffffff16600f600084815260200190815260200160002060000160009054906101000a900473ffffffffffffffffffffffffffffffffffffffff1673ffffffffffffffffffffffffffffffffffffffff16141515611a66576040517f08c379a000000000000000000000000000000000000000000000000000000000815260040180806020018281038252602a8152602001807f4f6e6c792074686520696e766573746f722063616e20636c61696d207468652081526020017f696e766573746d656e740000000000000000000000000000000000000000000081525060400191505060405180910390fd5b60001515600f600084815260200190815260200160002060030160009054906101000a900460ff161515141515611b05576040517f08c379a000000000000000000000000000000000000000000000000000000000815260040180806020018281038252601f8152602001807f54686520696e766573746d656e7420697320616c7265616479207370656e740081525060200191505060405180910390fd5b600f6000838152602001908152602001600020600201544210151515611bb9576040517f08c379a000000000000000000000000000000000000000000000000000000000815260040180806020018281038252602b8152602001807f556e6c6f636b2074696d6520666f722074686520696e766573746d656e74206481526020017f6964206e6f74207061737300000000000000000000000000000000000000000081525060400191505060405180910390fd5b600f600083815260200190815260200160002060010154600460008282540192505081905550600f600083815260200190815260200160002060010154601160008073ffffffffffffffffffffffffffffffffffffffff1673ffffffffffffffffffffffffffffffffffffffff16815260200190815260200160002060008282540392505081905550600f600083815260200190815260200160002060010154601160003373ffffffffffffffffffffffffffffffffffffffff1673ffffffffffffffffffffffffffffffffffffffff168152602001908152602001600020600082825401925050819055506001600f600084815260200190815260200160002060030160006101000a81548160ff021916908315150217905550600f6000838152602001908152602001600020600101543373ffffffffffffffffffffffffffffffffffffffff167fd3eec71143c45f28685b24760ea218d476917aa0ac0392a55e5304cef40bd2b660405160405180910390a360019050919050565b60075481565b60018054600181600116156101000203166002900480601f016020809104026020016040519081016040528092919081815260200182805460018160011615610100020316600290048015611dd35780601f10611da857610100808354040283529160200191611dd3565b820191906000526020600020905b815481529060010190602001808311611db657829003601f168201915b505050505081565b600081601160003373ffffffffffffffffffffffffffffffffffffffff1673ffffffffffffffffffffffffffffffffffffffff1681526020019081526020016000205410151515611eba576040517f08c379a00000000000000000000000000000000000000000000000000000000081526004018080602001828103825260288152602001807f596f7520646f6e74206861766520737566666963656e7420616d6f756e74206f81526020017f6620746f6b656e7300000000000000000000000000000000000000000000000081525060400191505060405180910390fd5b600b54601160003373ffffffffffffffffffffffffffffffffffffffff1673ffffffffffffffffffffffffffffffffffffffff1681526020019081526020016000205410151515611f99576040517f08c379a00000000000000000000000000000000000000000000000000000000081526004018080602001828103825260288152602001807f596f7520646f6e74206861766520737566666963656e7420616d6f756e74206f81526020017f6620746f6b656e7300000000000000000000000000000000000000000000000081525060400191505060405180910390fd5b600082111515612037576040517f08c379a00000000000000000000000000000000000000000000000000000000081526004018080602001828103825260298152602001807f496e766573746d656e7420616d6f756e742073686f756c64206265206269676781526020017f6572207468616e2030000000000000000000000000000000000000000000000081525060400191505060405180910390fd5b6000600a6030612046856111e4565b0281151561205057fe5b04905060e0604051908101604052803373ffffffffffffffffffffffffffffffffffffffff168152602001848152602001828152602001428152602001609642018152602001600181526020016000151581525060106000600754815260200190815260200160002060008201518160000160006101000a81548173ffffffffffffffffffffffffffffffffffffffff021916908373ffffffffffffffffffffffffffffffffffffffff1602179055506020820151816001015560408201518160020155606082015181600301556080820151816004015560a0820151816005015560c08201518160060160006101000a81548160ff02191690831515021790555090505060076000815480929190600101919050555082601160003373ffffffffffffffffffffffffffffffffffffffff1673ffffffffffffffffffffffffffffffffffffffff1681526020019081526020016000206000828254039250508190555082600a820201601160008073ffffffffffffffffffffffffffffffffffffffff1673ffffffffffffffffffffffffffffffffffffffff16815260200190815260200160002060008282540192505081905550826004600082825403925050819055503373ffffffffffffffffffffffffffffffffffffffff167f1cd8e6d0fa374813e8a50911b818220fbdbbbc5a2b5d4e3219c4cdbd73ef2e8b846040518082815260200191505060405180910390a2600754915050919050565b600a5481565b600060106000838152602001908152602001600020600501549050919050565b60038054600181600116156101000203166002900480601f01602080910402602001604051908101604052809291908181526020018280546001816001161561010002031660029004801561232b5780601f106123005761010080835404028352916020019161232b565b820191906000526020600020905b81548152906001019060200180831161230e57829003601f168201915b505050505081565b600081601160003373ffffffffffffffffffffffffffffffffffffffff1673ffffffffffffffffffffffffffffffffffffffff1681526020019081526020016000205410151515612412576040517f08c379a00000000000000000000000000000000000000000000000000000000081526004018080602001828103825260288152602001807f596f7520646f6e74206861766520737566666963656e7420616d6f756e74206f81526020017f6620746f6b656e7300000000000000000000000000000000000000000000000081525060400191505060405180910390fd5b81601160003373ffffffffffffffffffffffffffffffffffffffff1673ffffffffffffffffffffffffffffffffffffffff1681526020019081526020016000206000828254039250508190555081601160008573ffffffffffffffffffffffffffffffffffffffff1673ffffffffffffffffffffffffffffffffffffffff168152602001908152602001600020600082825401925050819055508273ffffffffffffffffffffffffffffffffffffffff163373ffffffffffffffffffffffffffffffffffffffff167fddf252ad1be2c89b69c2b068fc378daa952ba7f163c4a11628f55a4df523b3ef846040518082815260200191505060405180910390a36001905092915050565b600060106000838152602001908152602001600020600101549050919050565b6012602052816000526040600020602052806000526040600020600091509150505481565b600082601160003373ffffffffffffffffffffffffffffffffffffffff1673ffffffffffffffffffffffffffffffffffffffff168152602001908152602001600020541015151561263f576040517f08c379a00000000000000000000000000000000000000000000000000000000081526004018080602001828103825260288152602001807f596f7520646f6e74206861766520737566666963656e7420616d6f756e74206f81526020017f6620746f6b656e7300000000000000000000000000000000000000000000000081525060400191505060405180910390fd5b6000831115156126dd576040517f08c379a00000000000000000000000000000000000000000000000000000000081526004018080602001828103825260298152602001807f496e766573746d656e7420616d6f756e742073686f756c64206265206269676781526020017f6572207468616e2030000000000000000000000000000000000000000000000081525060400191505060405180910390fd5b603c84101580156126fa57506000603c858115156126f757fe5b06145b151561276e576040517f08c379a00000000000000000000000000000000000000000000000000000000081526004018080602001828103825260158152602001807f57726f6e6720696e766573746d656e742074696d65000000000000000000000081525060200191505060405180910390fd5b6000603c8581151561277c57fe5b04905060018110158015612791575060188111155b801561279d5750600183145b15612aa7576040805190810160405280600581526020017f73686f7274000000000000000000000000000000000000000000000000000000815250600390805190602001906127ed929190613160565b50806127f8856111e4565b02840160058190555060a0604051908101604052803373ffffffffffffffffffffffffffffffffffffffff1681526020016005548152602001864201815260200160001515815260200160038054600181600116156101000203166002900480601f0160208091040260200160405190810160405280929190818152602001828054600181600116156101000203166002900480156128d85780601f106128ad576101008083540402835291602001916128d8565b820191906000526020600020905b8154815290600101906020018083116128bb57829003601f168201915b5050505050815250600f6000600654815260200190815260200160002060008201518160000160006101000a81548173ffffffffffffffffffffffffffffffffffffffff021916908373ffffffffffffffffffffffffffffffffffffffff160217905550602082015181600101556040820151816002015560608201518160030160006101000a81548160ff021916908315150217905550608082015181600401908051906020019061298c9291906131e0565b5090505060066000815480929190600101919050555083601160003373ffffffffffffffffffffffffffffffffffffffff1673ffffffffffffffffffffffffffffffffffffffff16815260200190815260200160002060008282540392505081905550600554601160008073ffffffffffffffffffffffffffffffffffffffff1673ffffffffffffffffffffffffffffffffffffffff16815260200190815260200160002060008282540192505081905550836004600082825403925050819055503373ffffffffffffffffffffffffffffffffffffffff167fe1fffcc4923d04b559f4d29a8bfc6cda04eb5b0d3c460751c2402c5c5cc9109c856040518082815260200191505060405180910390a2600654915050613153565b60788510158015612ab85750600283145b8015612ac75750622625a08410155b8015612adf57506000607886811515612adc57fe5b06145b15612dfc57607885811515612af057fe5b0490506040805190810160405280600381526020017f6d6964000000000000000000000000000000000000000000000000000000000081525060039080519060200190612b3e929190613160565b5060095481612b4c866111e4565b0202840160058190555060a0604051908101604052803373ffffffffffffffffffffffffffffffffffffffff1681526020016005548152602001864201815260200160001515815260200160038054600181600116156101000203166002900480601f016020809104026020016040519081016040528092919081815260200182805460018160011615610100020316600290048015612c2d5780601f10612c0257610100808354040283529160200191612c2d565b820191906000526020600020905b815481529060010190602001808311612c1057829003601f168201915b5050505050815250600f6000600654815260200190815260200160002060008201518160000160006101000a81548173ffffffffffffffffffffffffffffffffffffffff021916908373ffffffffffffffffffffffffffffffffffffffff160217905550602082015181600101556040820151816002015560608201518160030160006101000a81548160ff0219169083151502179055506080820151816004019080519060200190612ce19291906131e0565b5090505060066000815480929190600101919050555083601160003373ffffffffffffffffffffffffffffffffffffffff1673ffffffffffffffffffffffffffffffffffffffff16815260200190815260200160002060008282540392505081905550600554601160008073ffffffffffffffffffffffffffffffffffffffff1673ffffffffffffffffffffffffffffffffffffffff16815260200190815260200160002060008282540192505081905550836004600082825403925050819055503373ffffffffffffffffffffffffffffffffffffffff167fe1fffcc4923d04b559f4d29a8bfc6cda04eb5b0d3c460751c2402c5c5cc9109c856040518082815260200191505060405180910390a2600654915050613153565b60b48510158015612e0d5750600383145b8015612e1c5750627270e08410155b8015612e345750600060b486811515612e3157fe5b06145b156131515760b485811515612e4557fe5b0490506040805190810160405280600481526020017f6c6f6e670000000000000000000000000000000000000000000000000000000081525060039080519060200190612e93929190613160565b50600a5481612ea1866111e4565b0202840160058190555060a0604051908101604052803373ffffffffffffffffffffffffffffffffffffffff1681526020016005548152602001864201815260200160001515815260200160038054600181600116156101000203166002900480601f016020809104026020016040519081016040528092919081815260200182805460018160011615610100020316600290048015612f825780601f10612f5757610100808354040283529160200191612f82565b820191906000526020600020905b815481529060010190602001808311612f6557829003601f168201915b5050505050815250600f6000600654815260200190815260200160002060008201518160000160006101000a81548173ffffffffffffffffffffffffffffffffffffffff021916908373ffffffffffffffffffffffffffffffffffffffff160217905550602082015181600101556040820151816002015560608201518160030160006101000a81548160ff02191690831515021790555060808201518160040190805190602001906130369291906131e0565b5090505060066000815480929190600101919050555083601160003373ffffffffffffffffffffffffffffffffffffffff1673ffffffffffffffffffffffffffffffffffffffff16815260200190815260200160002060008282540392505081905550600554601160008073ffffffffffffffffffffffffffffffffffffffff1673ffffffffffffffffffffffffffffffffffffffff16815260200190815260200160002060008282540192505081905550836004600082825403925050819055503373ffffffffffffffffffffffffffffffffffffffff167fe1fffcc4923d04b559f4d29a8bfc6cda04eb5b0d3c460751c2402c5c5cc9109c856040518082815260200191505060405180910390a2600654915050613153565b505b9392505050565b60065481565b828054600181600116156101000203166002900490600052602060002090601f016020900481019282601f106131a157805160ff19168380011785556131cf565b828001600101855582156131cf579182015b828111156131ce5782518255916020019190600101906131b3565b5b5090506131dc9190613260565b5090565b828054600181600116156101000203166002900490600052602060002090601f016020900481019282601f1061322157805160ff191683800117855561324f565b8280016001018555821561324f579182015b8281111561324e578251825591602001919060010190613233565b5b50905061325c9190613260565b5090565b61328291905b8082111561327e576000816000905550600101613266565b5090565b9056fea165627a7a72305820a379dbd84391c0696dd92bae8de6f1d19cf86381ca937c93863375df9f0f2ef80029",
  "source": "pragma solidity ^0.5.0;\r\n\r\n\r\ncontract Election  {\r\n\r\n    string  public name = \"DApp Token\";\r\n    string  public symbol = \"DAPP\";\r\n    string  public standard = \"DApp Token v1.0\";\r\n    string  public investmentTerm;\r\n    uint256 public totalSupply;\r\n    uint256 public totalinvestmentafterinterest;\r\n    uint256 public investorIndex = 1;\r\n    uint256 public investor2Index = 1;\r\n    uint256 public interestRate = 17;\r\n    uint256 public multiplicationForMidTerm  = 5; \r\n    uint256 public multiplicationForLongTerm = 30;\r\n    uint256 public minForPassive = 500000 ;\r\n    uint256 public tokensForSale = 200000000 ;\r\n    uint256 public tokensSold = 1 ;  \r\n    uint256 public tokenPrice = 10000000 ;     \r\n  \r\n    struct Investment {\r\n        address investorAddress;\r\n        uint256 investedAmount;\r\n        uint256 investmentuUnlocktime;\r\n        bool spent;   \r\n        string term;\r\n    } \r\n    struct passiveIncome {\r\n        address investorAddress2;\r\n        uint256 investedAmount2;\r\n        uint256 dailyPassiveIncome;\r\n        uint256 investmentTimeStamp;\r\n        uint256 investmentuUnlocktime2;\r\n        uint256 day;\r\n        bool spent2;   \r\n    }   \r\n\r\n    mapping(uint256 => Investment) private Investors;\r\n    mapping(uint256 => passiveIncome) private Investors2;\r\n\r\n\r\n    constructor ()  public {\r\n        totalSupply = 1000000000;\r\n        balanceOf[msg.sender] = 799900000;\r\n        balanceOf[address(0)] = 100000;\r\n        \r\n      \r\n    }\r\n   \r\n\r\n    event Deposit(\r\n        address indexed _investor,\r\n        uint256 _investmentValue\r\n    );\r\n    event Deposit2(\r\n        address indexed _investor2,\r\n        uint256 _investmentValue2\r\n    );\r\n\r\n    event Spent(\r\n        address indexed _acclaimer,\r\n        uint256 indexed _amout\r\n    );\r\n    event Spent2(\r\n        address indexed _acclaimer2,\r\n        uint256 indexed _amout2\r\n    );\r\n\r\n    event Transfer(\r\n        address indexed _from,\r\n        address indexed _to,\r\n        uint256 _value\r\n    );\r\n    \r\n\r\n    event Approval(\r\n        address indexed _owner,\r\n        address indexed _spender,\r\n        uint256 _value\r\n    );\r\n\r\n    mapping(address => uint256) public balanceOf;\r\n    mapping(address => mapping(address => uint256)) public allowance;\r\n\r\n    function getInterestrate(uint256 _investment) public returns (uint256 rate) {\r\n        require(_investment < totalSupply,\"wrong\");\r\n\r\n        uint256 totalinvestments = balanceOf[address(0)] * 100000;\r\n        uint256 investmentsprecenteg = totalinvestments / totalSupply;\r\n        uint256 adjustedinterestrate = (100000 - investmentsprecenteg) * interestRate;\r\n        uint256 interestoninvestment = (adjustedinterestrate * _investment) / 1000000000;\r\n\r\n        return (interestoninvestment);\r\n    }\r\n\r\n    function transfer(address _to, uint256 _value) public returns (bool success) {\r\n        require(balanceOf[msg.sender] >= _value,\"You dont have sufficent amount of tokens\");\r\n\r\n        balanceOf[msg.sender] -= _value;\r\n        balanceOf[_to] += _value;\r\n\r\n        emit Transfer(msg.sender, _to, _value);\r\n\r\n        return true;\r\n    }\r\n\r\n    function approve(address _spender, uint256 _value) public returns (bool success) {\r\n        allowance[msg.sender][_spender] = _value;\r\n\r\n        emit Approval(msg.sender, _spender, _value);\r\n\r\n        return true;\r\n    }\r\n\r\n    function transferFrom(address _from, address _to, uint256 _value) public returns (bool success) {\r\n        require(_value <= balanceOf[_from],\"\");\r\n        require(_value <= allowance[_from][msg.sender],\"\");\r\n\r\n        balanceOf[_from] -= _value;\r\n        balanceOf[_to] += _value;\r\n\r\n        allowance[_from][msg.sender] -= _value;\r\n\r\n        emit Transfer(_from, _to, _value);\r\n\r\n        return true;\r\n    }\r\n    \r\n    function investment(uint256 _unlockTime,uint256 _amount,uint term123) public returns (uint256 ID) {\r\n        require(balanceOf[msg.sender] >= _amount,\"You dont have sufficent amount of tokens\");\r\n        require(_amount > 0,\"Investment amount should be bigger than 0\");\r\n        require(_unlockTime >= 60 && (_unlockTime % 60) == 0, \"Wrong investment time\");\r\n\r\n          \r\n\r\n        uint termAfter = (_unlockTime / 60);\r\n        if((termAfter >= 1) && (termAfter <= 24) && (term123 == 1))\r\n        {\r\n            investmentTerm = \"short\";\r\n            totalinvestmentafterinterest = _amount + ((getInterestrate(_amount) * termAfter));\r\n            Investors[investorIndex] = Investment(msg.sender,totalinvestmentafterinterest,block.timestamp + _unlockTime,false,investmentTerm);\r\n            investorIndex ++;\r\n            balanceOf[msg.sender] -= _amount;\r\n            balanceOf[address(0)] += totalinvestmentafterinterest;\r\n            totalSupply -= _amount;\r\n\r\n            emit Deposit(msg.sender, _amount);\r\n            return (investorIndex);\r\n        }\r\n\r\n        if((_unlockTime >= 120) && (term123 == 2) && (_amount >= 2500000) && (_unlockTime % 120) == 0){\r\n            termAfter = (_unlockTime / 120);\r\n            investmentTerm = \"mid\";\r\n            totalinvestmentafterinterest = _amount + ((getInterestrate(_amount) * termAfter) * multiplicationForMidTerm);\r\n            Investors[investorIndex] = Investment(msg.sender,totalinvestmentafterinterest,block.timestamp + _unlockTime,false,investmentTerm);\r\n            investorIndex ++;\r\n            balanceOf[msg.sender] -= _amount;\r\n            balanceOf[address(0)] += totalinvestmentafterinterest;\r\n            totalSupply -= _amount;\r\n\r\n            emit Deposit(msg.sender, _amount);\r\n            return (investorIndex);\r\n        }\r\n\r\n        if((_unlockTime >= 180) && (term123 == 3) && (_amount >= 7500000) && (_unlockTime % 180 == 0)){\r\n            termAfter = (_unlockTime / 180);\r\n            investmentTerm = \"long\";\r\n            totalinvestmentafterinterest = _amount + ((getInterestrate(_amount) * termAfter) * multiplicationForLongTerm);\r\n            Investors[investorIndex] = Investment(msg.sender,totalinvestmentafterinterest,block.timestamp + _unlockTime,false,investmentTerm);\r\n            investorIndex ++;\r\n            balanceOf[msg.sender] -= _amount;\r\n            balanceOf[address(0)] += totalinvestmentafterinterest;\r\n            totalSupply -= _amount;\r\n\r\n            emit Deposit(msg.sender, _amount);\r\n            return (investorIndex);\r\n        } \r\n        \r\n        \r\n        \r\n    }\r\n\r\n    function releaseInvestment(uint256 investmentId) public returns (bool success) {\r\n        require(Investors[investmentId].investorAddress == msg.sender, \"Only the investor can claim the investment\");\r\n        require(Investors[investmentId].spent == false, \"The investment is already spent\");\r\n        require(block.timestamp >= Investors[investmentId].investmentuUnlocktime, \"Unlock time for the investment did not pass\");\r\n\r\n        totalSupply += Investors[investmentId].investedAmount;\r\n        balanceOf[address(0)] -= Investors[investmentId].investedAmount;\r\n        balanceOf[msg.sender] += Investors[investmentId].investedAmount;\r\n\r\n        Investors[investmentId].spent = true;  \r\n\r\n        emit Spent(msg.sender, Investors[investmentId].investedAmount);\r\n        \r\n        return true;\r\n    }\r\n\r\n\r\n    function passiveIncomeInvestment(uint256 _amount) public returns (uint256 ID2) {\r\n\r\n        require(balanceOf[msg.sender] >= _amount,\"You dont have sufficent amount of tokens\");\r\n        require(balanceOf[msg.sender] >= minForPassive,\"You dont have sufficent amount of tokens\");\r\n        require(_amount > 0,\"Investment amount should be bigger than 0\");\r\n        \r\n        uint256 interestOnInvestment =  ((getInterestrate(_amount) * 48) / 10);\r\n        Investors2[investor2Index] = passiveIncome(msg.sender,_amount,interestOnInvestment,block.timestamp ,block.timestamp + (15 * 10),1,false);\r\n        investor2Index ++;\r\n        balanceOf[msg.sender] -= _amount;\r\n        balanceOf[address(0)] += (interestOnInvestment * 10)+ _amount;\r\n        totalSupply -= _amount;\r\n        emit Deposit2(msg.sender, _amount);\r\n        return (investor2Index);\r\n\r\n    }\r\n    function getPasiveIncomeDay(uint256 pasiveincomeID) public returns (uint256 ID2) {\r\n        return(Investors2[pasiveincomeID].day);\r\n    }\r\n    function getPasiveIncomeAmount(uint256 pasiveincomeID) public returns (uint256 ID2) {\r\n        return(Investors2[pasiveincomeID].investedAmount2);\r\n    }\r\n \r\n    function releasePasiveIncome(uint256 investmentId2) public returns (bool success) {\r\n    require(Investors2[investmentId2].investorAddress2 == msg.sender, \"Only the investor can claim the investment\");\r\n    require(Investors2[investmentId2].spent2 == false, \"The investment is already spent\");\r\n    require(block.timestamp >= Investors2[investmentId2].investmentTimeStamp + (15 * Investors2[investmentId2].day)  , \"Unlock time for the investment did not pass\");\r\n    require(Investors2[investmentId2].day < 11 , \"The investment is already spent\");\r\n\r\n    \r\n    totalSupply += Investors2[investmentId2].dailyPassiveIncome;\r\n    balanceOf[address(0)] -= Investors2[investmentId2].dailyPassiveIncome;\r\n    balanceOf[msg.sender] += Investors2[investmentId2].dailyPassiveIncome;\r\n    if(Investors2[investmentId2].day == 10)\r\n    {\r\n        totalSupply += Investors2[investmentId2].investedAmount2;\r\n        balanceOf[address(0)] -= Investors2[investmentId2].investedAmount2;\r\n        balanceOf[msg.sender] += Investors2[investmentId2].investedAmount2;\r\n        Investors2[investmentId2].spent2 = true;\r\n        Investors2[investmentId2].day ++;\r\n        emit Spent(msg.sender, Investors2[investmentId2].investedAmount2);\r\n        return true;\r\n    }\r\n    \r\n    Investors2[investmentId2].day ++;\r\n\r\n    emit Spent(msg.sender, Investors2[investmentId2].dailyPassiveIncome);\r\n     if(block.timestamp >= Investors2[investmentId2].investmentTimeStamp + (15 * Investors2[investmentId2].day))\r\n     {\r\n         releasePasiveIncome(investmentId2);\r\n     }\r\n    return true;\r\n}\r\n    function getDiscountOnBuy(uint256 tokensAmount) public returns (uint256 discount) {\r\n    \r\n        uint256 tokensSoldADJ = tokensSold * 1000000000;\r\n        uint256 discountPrecente =  tokensSoldADJ / tokensForSale ;\r\n        uint256 adjustedDiscount = (1000000000 - discountPrecente) * 2500;\r\n        uint256 DiscountofTokens = (adjustedDiscount * tokensAmount) / 10000000000000;     \r\n\r\n     return(DiscountofTokens);\r\n    }\r\n\r\n    function () payable external{\r\n\r\n        require(tokensSold < 200000000, \"All tokens are sold\");\r\n        require(msg.value <= 2 * 100000000000000000);\r\n\r\n        uint256 eth = msg.value / 100000000000000000;\r\n        uint256 tokens = eth * tokenPrice ;\r\n        uint256 bounosTokens = getDiscountOnBuy(tokens);\r\n\r\n        require(bounosTokens + tokens <= 200000000 - tokensSold, \"All tokens are sold\");\r\n\r\n        tokensSold += tokens + bounosTokens;\r\n        balanceOf[msg.sender] += (tokens + bounosTokens);\r\n        \r\n\r\n    }\r\n\r\n}\r\n\r\n\r\n\r\n\r\n\r\n\r\n\r\n ",
  "sourcePath": "C:/Users/N-Elias/token2/contracts/Election.sol",
  "compiler": {
    "name": "solc",
    "version": "0.5.0+commit.1d4f565a.Emscripten.clang"
  },
  "schemaVersion": "3.0.2",
  "updatedAt": "2019-04-01T13:39:08.079Z",
  "devdoc": {
    "methods": {}
  },
  "userdoc": {
    "methods": {}
  }
}